:100000000C9454010C94F7030C9471010C9471013D
:100010000C9471010C94CD040C9471010C94710139
:100020000C9471010C9471010C9434030C947101C3
:100030000C9471010C9471010C94E0010C94710109
:100040000C9471010C9471010C949E020C9471013A
:100050000C9471010C9471010C9471010C94710158
:100060000C9471010C947101050000000000050062
:10007000005F000005000700070005147F147F14CF
:1000800005242A7F2A12052313086462053649567F
:10009000205005080703000005001C224100050050
:1000A00041221C000514083E08140508083E0808F3
:1000B0000500B07000000508080808080500606029
:1000C0000000052010080402053E5149453E050088
:1000D000427F4000057249494946052141494D3357
:1000E000051814127F10052745454539053C4A4936
:1000F0004931054121110907053649494936054667
:100100004949291E05000014000005004034000084
:100110000508142241000514141414140541221476
:100120000800050201590906053E415D594E057C4E
:100130001211127C057F49494936053E4141412251
:10014000057F4141413E057F49494949057F0909EC
:100150000909053E41415173057F0808087F0500E4
:10016000417F4100052040413F01057F08142241A5
:10017000057F40404040057F020C027F057F040858
:10018000107F053E4141413E057F09090906053EB4
:100190004151215E057F0919294605264949493201
:1001A0000501017F0101053F4040403F051F204000
:1001B000201F053F4038403F0563140814630503C2
:1001C0000478040305615149454305007F4141001E
:1001D000050204081020050041417F0005040201CA
:1001E000020405404040404005070B000000052088
:1001F00054547840057F2844443805384444442802
:1002000005384444287F0538545454180500087EA6
:1002100009020518A4A49C78057F08040478050049
:10022000447D4000052040403D00057F10284400EB
:100230000500417F4000057C04780478057C0804B3
:10024000047805384444443805FC1824241805185B
:10025000242418FC057C080404080548545454243C
:100260000504043F4424053C4040207C051C2040FC
:10027000201C053C4030403C054428102844054CD7
:100280009090907C054464544C440500083641002D
:10029000050000770000050041360800050402044F
:1002A000080405007F417F0011241FBECFEFD8E076
:1002B000DEBFCDBF11E0A0E0B1E0EAEEF3E302C0A3
:1002C00005900D92A63AB107D9F725E0A6EAB1E06C
:1002D00001C01D92AA3DB207E1F70E943D050C94B2
:1002E000F3190C940000CF93DF9300D0CDB7DEB7A5
:1002F0009A83898385EC90E029813A81232F3327E3
:10030000FC01208384EC90E02981FC01208381ECB6
:1003100090E028E9FC01208382EC90E02EE0FC01D3
:10032000208300000F900F90DF91CF910895CF931D
:10033000DF9300D000D0CDB7DEB79C838B831A82C9
:1003400019821CC0000080EC90E0FC018081882FA5
:1003500090E080729927892BB1F386EC90E0298197
:100360003A814B815C81240F351FF9012081FC010A
:10037000208389819A8101969A83898389819A81D0
:100380002B813C81820F931FFC0180818823D1F651
:10039000000080EC90E0FC018081882F90E080726A
:1003A0009927892BB1F386EC90E02DE0FC012083A6
:1003B00000000F900F900F900F90DF91CF91089554
:1003C0001F920F9200905F000F9211242F933F9382
:1003D0004F935F936F937F938F939F93AF93BF934D
:1003E000EF93FF93CF93DF93CDB7DEB78091AF014B
:1003F0009091B001A091B101B091B2010196A11DFF
:10040000B11D8093AF019093B001A093B101B0935F
:10041000B2018091AF019091B001A091B101B09172
:10042000B20125E030E040E050E0BC01CD010E9487
:100430008516DC01CB01892B8A2B8B2B19F481E0EB
:100440008093A6018091AF019091B001A091B1017C
:10045000B091B20122E330E040E050E0BC01CD01B8
:100460000E948516DC01CB01892B8A2B8B2B19F47A
:1004700081E08093A7018091AF019091B001A0919C
:10048000B101B091B2012AEF30E040E050E0BC0190
:10049000CD010E948516DC01CB01892B8A2B8B2B89
:1004A00019F481E08093AD018091AF019091B0018A
:1004B000A091B101B091B20124EF31E040E050E0F1
:1004C000BC01CD010E948516DC01CB01892B8A2B52
:1004D0008B2B31F481E08093A80181E08093A90106
:1004E0008091AF019091B001A091B101B091B201A2
:1004F00028EE33E040E050E0BC01CD010E948516BB
:10050000DC01CB01892B8A2B8B2B19F481E08093A2
:10051000AA010000DF91CF91FF91EF91BF91AF91C0
:100520009F918F917F916F915F914F913F912F910B
:100530000F9000925F000F901F9018951F920F92DE
:1005400000905F000F9211242F933F934F935F937E
:100550006F937F938F939F93AF93BF93EF93FF938B
:10056000CF93DF93CDB7DEB76197DEBFCDBF86EC0B
:1005700090E0FC01808189838981843619F58EE1C0
:1005800090E00E949319292F2F938F938BE091E095
:10059000892F8F938BE091E08F93CE010296292FC4
:1005A0002F938F930E94E0160F900F900F900F9053
:1005B0000F900F908EE091E00E949701CE0102967D
:1005C0000E94970189818C3671F48DE291E00E943E
:1005D000970161E070E08EE190E00E9499198CE44F
:1005E00091E00E94970189818F3619F588E290E0A9
:1005F0000E949319292F2F938F938BE091E0892FDD
:100600008F938BE091E08F93CE010A96292F2F9341
:100610008F930E94E0160F900F900F900F900F9005
:100620000F9083E591E00E949701CE010A960E9407
:100630009701000061960FB6F894DEBF0FBECDBFE4
:10064000DF91CF91FF91EF91BF91AF919F918F91EA
:100650007F916F915F914F913F912F910F900092F9
:100660005F000F901F9018951F920F9200905F00EF
:100670000F921124EF92FF920F931F932F933F93AA
:100680004F935F936F937F938F939F93AF93BF939A
:10069000EF93FF93CF93DF93CDB7DEB781E890E080
:1006A000FC018081882F90E080749927892B89F044
:1006B00086E890E0FC0180819181CC01A0E0B0E06F
:1006C0008093C1019093C201A093C301B093C40170
:1006D0006BC086E890E0FC01808191819C0140E044
:1006E00050E08091C1019091C201A091C301B091ED
:1006F000C40179018A01E81AF90A0A0B1B0BD80117
:10070000C701880F991FAA1FBB1F880F991FAA1F17
:10071000BB1F880F991FAA1FBB1F880F991FAA1FF5
:10072000BB1F8093B9019093BA01A093BB01B09312
:10073000BC018091B9019091BA01A091BB01B09127
:10074000BC01BC01CD010E944D15DC01CB012CE5A3
:100750003FE848E652E4BC01CD010E94AC14DC0144
:10076000CB01BC01CD010E941E15DC01CB018093A1
:10077000BD019093BE01A093BF01B093C0018091D1
:10078000BD019091BE01A091BF01B091C0018D3B10
:100790009240A105B10540F01092BD011092BE013A
:1007A0001092BF011092C00181E890E021E830E092
:1007B000F901308120E42327FC0120830000DF9130
:1007C000CF91FF91EF91BF91AF919F918F917F91C9
:1007D0006F915F914F913F912F911F910F91FF90DA
:1007E000EF900F9000925F000F901F9018951F924E
:1007F0000F9200905F000F921124EF92FF920F93DF
:100800001F932F933F934F935F936F937F938F9398
:100810009F93AF93BF93EF93FF93CF93DF9300D05A
:10082000CDB7DEB71A8219828091B301853009F005
:1008300059C08091AF019091B001A091B101B091E8
:10084000B2019C018091B4019091B501A091B601D3
:10085000B091B701A901481B590BCA019A8389833A
:1008600089819A819C0140E050E080EE93E9A4E008
:10087000B0E0BC01CD010E94A716DA01C901909336
:1008800004018093030180910501909106019C0170
:1008900040E050E085E392E0DC010E94D5167B0148
:1008A0008C0189819A819C0140E050E0C801B70128
:1008B0000E948516DA01C90190930201809301011B
:1008C0008091AF019091B001A091B101B091B201BE
:1008D0008093B4019093B501A093B601B093B70192
:1008E0001092B3018091B3018F5F8093B301809127
:1008F000050190910601CC01A0E0B0E0BC01CD0162
:100900000E944D15DC01CB0126E53EE049E450E4B0
:10091000BC01CD010E940416DC01CB0120E030E5D2
:1009200043EC57E4BC01CD010E94AC14DC01CB01C7
:100930007C018D018091070190910801A09109012E
:10094000B0910A019C01AD01C801B7010E943B149E
:10095000DC01CB018093070190930801A09309016A
:10096000B0930A0100000F900F90DF91CF91FF919B
:10097000EF91BF91AF919F918F917F916F915F9117
:100980004F913F912F911F910F91FF90EF900F90FA
:1009900000925F000F901F9018951F920F92009089
:1009A0005F000F9211242F933F934F935F936F93A8
:1009B0007F938F939F93AF93BF93EF93FF93CF93C7
:1009C000DF93CDB7DEB789E290E0FC018081882F0C
:1009D00090E080719927892BC9F48091050190914D
:1009E0000601883C910548F480910501909106012B
:1009F00001969093060180930501809105019091E5
:100A00000601BC018AE090E00E94991989E290E019
:100A1000FC018081882F90E080729927892BC1F496
:100A20008091050190910601029748F0809105019F
:100A300090910601019790930601809305018091A2
:100A4000050190910601BC018AE090E00E9499198D
:100A50000000DF91CF91FF91EF91BF91AF919F91F6
:100A60008F917F916F915F914F913F912F910F9057
:100A700000925F000F901F9018954F925F926F92B7
:100A80007F928F929F92AF92BF92CF92DF92EF921E
:100A9000FF920F931F93CF93DF93CDB7DEB784E21E
:100AA00090E024E230E0F9012081FC01208387E21C
:100AB00090E027E230E0F90120812073FC012083DF
:100AC0008AE290E02AE230E0F9012081237CFC01F7
:100AD00020838BE290E02CE3FC01208385E290E010
:100AE00020E7FC01208389E690E022E0FC012083DE
:100AF0008DE390E021E0FC01208388E690E024E093
:100B0000FC0120838DE690E020E3FC01208384E457
:100B100090E022E0FC01208385E490E023E0FC01EA
:100B2000208387E490E029EFFC0120838EE690E0AB
:100B300022E0FC01208380EB90E023EAFC0120838B
:100B400081EB90E023E0FC01208384EB90E0FC014A
:100B500010828CE790E020E4FC0120838AE790E09B
:100B600027EEFC0120838BE790E0FC0110828EE7EA
:100B700090E0FC01108281E890E024E4FC012083F5
:100B80008FE690E020E2FC01208378948AE090E0F8
:100B90000E949319019639F461E470E08AE090E0D4
:100BA0000E94991908C08AE090E00E9493199093DE
:100BB00006018093050188E290E00E949319019656
:100BC00039F46BE070E088E290E00E94991915C05A
:100BD00088E290E00E949319CC01A0E0B0E0BC0153
:100BE000CD010E944D15DC01CB018093070190934C
:100BF0000801A0930901B0930A018EE190E00E94E0
:100C00009319019639F462E070E08EE190E00E9461
:100C100099190FC08EE190E00E949319CC01A0E0D9
:100C2000B0E08093CD019093CE01A093CF01B0931B
:100C3000D00187E690E00E9473010E941B0D20E026
:100C400048E065E088E690E00E94AB100E949410B6
:100C50000E94C40D0F2EF0E0CF2EF1E0DF2EF02D1C
:100C60000F2EFEEAEF2EF1E0FF2EF02D0CEA11E040
:100C70002BEA31E04DEA51E069EA71E08AEA91E05D
:100C80000E9401072091C9013091CA014091CB0116
:100C90005091CC018091010190910201CC01A0E022
:100CA000B0E089019A01AC01BD0186EA91E00E94A1
:100CB00081098091AB01882F90E08C018091C50162
:100CC0009091C601A091C701B091C801BC01CD01AE
:100CD0000E944D154B015C018091CD019091CE0198
:100CE000A091CF01B091D001BC01CD010E944D1562
:100CF0006B017C018091BD019091BE01A091BF016B
:100D0000B091C001BC01CD010E944D152B013C01E9
:100D10008091070190910801A0910901B0910A0109
:100D20004091030150910401609105017091060109
:100D3000E0910101F091020120E031E0232F2F9397
:100D400020E031E02F93212F2F93202F2F932B2D55
:100D50002F932A2D2F93292D2F93282D2F932F2D2D
:100D60002F932E2D2F932D2D2F932C2D2F93630109
:100D700052010F2EF8EAEF2EF1E0FF2EF02D8C013C
:100D80009D01CF010E94200A8DB79EB70C960FB629
:100D9000F894DEBF0FBECDBF87EA91E00E94A508A0
:100DA00088E290E00E949319CC01A0E0B0E0BC0181
:100DB000CD010E944D157B018C018091070190911E
:100DC0000801A0910901B0910A019C01AD01C8017F
:100DD000B7010E94A714882399F080910701909190
:100DE0000801A0910901B0910A01BC01CD010E9446
:100DF0001E15DC01CB01BC0188E290E00E9499192C
:100E000029CFCF92DF92EF92FF920F931F93CF9350
:100E1000DF93CDB7DEB72E970FB6F894DEBF0FBEC7
:100E2000CDBF9A8389837C836B835E834D833887B0
:100E30002F831A870987FC86EB86DE86CD868B8119
:100E40009C81FC018081882309F4D9C083E290E071
:100E5000FC018081882F90E080719927892B01F512
:100E60008F819885FC018081882351F485E290E090
:100E700025E230E0F90120812260FC01208329C0B5
:100E80008F819885FC018081813019F585E290E0A1
:100E900025E230E0F90120812D7FFC01208319C07B
:100EA00083E290E0FC018081882F90E08071992797
:100EB000892B79F08F819885FC018081813049F4FC
:100EC00085E290E025E230E0F90120812D7FFC01F0
:100ED000208383E290E0FC018081882F90E0807283
:100EE0009927892B01F58F819885FC0180818823C2
:100EF00051F485E290E025E230E0F901208120689C
:100F0000FC01208329C08F819885FC01808181307C
:100F100019F585E290E025E230E0F90120812F7794
:100F2000FC01208319C083E290E0FC018081882FBE
:100F300090E080729927892B79F08F819885FC0148
:100F40008081813049F485E290E025E230E0F901CA
:100F500020812F77FC0120838D859E85FC01808177
:100F6000813001F58F819885FC018081882351F4BF
:100F700088E290E028E230E0F90120812860FC015D
:100F8000208329C08F819885FC018081813019F5EB
:100F900088E290E028E230E0F9012081277FFC011F
:100FA000208319C08D859E85FC018081813031F4BC
:100FB0008F819885FC018081813021F08D859E850F
:100FC000892B49F488E290E028E230E0F9012081A1
:100FD000277FFC0120838F819885FC0180818823F5
:100FE00031F48F81988521E0FC01208304C08F813A
:100FF0009885FC0110828B819C81FC0110828D817F
:101000009E81FC018081882309F453C08D859E85D3
:10101000FC018081823001F58B859C85FC018081FB
:10102000882351F488E290E028E230E0F901208141
:101030002860FC01208329C08B859C85FC01808170
:10104000813019F588E290E028E230E0F901208152
:10105000277FFC01208319C08D859E85FC0180813E
:10106000823031F48B859C85FC018081813021F0B8
:101070008D859E85892B49F488E290E028E230E056
:10108000F9012081277FFC0120838B859C85FC0151
:101090008081882331F48B859C8521E0FC012083AD
:1010A00004C08B859C85FC0110828D819E81FC0192
:1010B000108283E290E0FC018081882F90E08074B0
:1010C0009927892BA9F489859A85FC018081882339
:1010D00079F485E290E025E230E0F9012081246096
:1010E000FC01208389859A8521E0FC0120831DC0B5
:1010F00083E290E0FC018081882F90E08074992742
:10110000892B99F089859A85FC018081813069F469
:1011100085E290E025E230E0F90120812B7FFC019F
:10112000208389859A85FC01108200002E960FB6D7
:10113000F894DEBF0FBECDBFDF91CF911F910F910D
:10114000FF90EF90DF90CF900895CF93DF9300D082
:10115000CDB7DEB79A83898389819A81FC0180812A
:10116000882309F4C8C08091B801882F90E08130AD
:101170009105E9F08230910509F469C0892B09F0E5
:10118000AAC088E790E0FC0180819181CC01A0E0B9
:10119000B0E08093C9019093CA01A093CB01B093B2
:1011A000CC018CE790E021E4FC01208394C088E727
:1011B00090E0FC01808191818F5F9140CC01A0E0A3
:1011C000B0E0BC01CD010E944D15DC01CB012AEC41
:1011D0003BE648EA5FE3BC01CD010E940416DC0156
:1011E000CB01BC01CD010E941E15DC01CB01809317
:1011F000CD019093CE01A093CF01B093D0018CE7A5
:1012000090E022E4FC0120838EE190E00E9493199B
:101210009C0140E050E08091CD019091CE01A091E1
:10122000CF01B091D001281739074A075B0708F0B2
:1012300051C08091CD019091CE01A091CF01B0918C
:10124000D001BC018EE190E00E94991943C088E76B
:1012500090E0FC012081318185E29AE0289FA00185
:10126000299F500D389F500D112488E790E0FC0114
:10127000808191812FEF33E0281B390BCA01B9011E
:101280000E947116CB018350914096958795969553
:1012900087959C01ABE3BDE60E94C616969587959F
:1012A000929582958F7089279F708927CC01A0E045
:1012B000B0E00897A109B1098093C5019093C601D8
:1012C000A093C701B093C8018CE790E020E4FC0133
:1012D000208301C000008091B801823030F48091F9
:1012E000B8018F5F8093B80102C01092B801898164
:1012F0009A81FC01108200000F900F90DF91CF9136
:1013000008950F931F93CF93DF93CDB7DEB72E973A
:101310000FB6F894DEBF0FBECDBF9E838D834F8383
:10132000588769877A870B871C872D873E878D8131
:101330009E81FC018081882309F476C06B857C85C1
:101340008D859E850E944D15DC01CB0122E334E69C
:1013500048EC5DE3BC01CD010E940416DC01CB0129
:10136000BC01CD010E941E15DC01CB0189839A834B
:10137000AB83BC838091BD019091BE01A091BF0160
:10138000B091C0018D329140A105B105E8F4809182
:10139000BD019091BE01A091BF01B091C0018C32FE
:1013A0009140A105B10540F48F819885A985BA8542
:1013B0004497A105B10540F089819A81AB81BC8138
:1013C0000A97A105B10538F504EB10E069817A812F
:1013D0008B819C810E944D15DC01CB0120E030E027
:1013E00048EC52E4BC01CD010E94AC14DC01CB01FD
:1013F00020E030E04FE753E4BC01CD010E94041629
:10140000DC01CB01BC01CD010E941E15DC01CB012A
:10141000F801808305C084EB90E029E1FC01208382
:101420008D819E81FC01108200002E960FB6F894EB
:10143000DEBF0FBECDBFDF91CF911F910F910895F9
:10144000AF92BF92CF92DF92EF92FF920F931F93D2
:10145000CF93DF93CDB7DEB7C254D1090FB6F8945E
:10146000DEBF0FBECDBF9CAB8BAB7EAB6DAB58AFC1
:101470004FAB09AF1AAF2BAF3CAFFEAEEDAECE0116
:10148000CF96FC01A082B182C282D3828DAD9EAD87
:10149000FC018081882309F4A9C28EA98F938DA9AC
:1014A0008F938BE091E0892F8F938BE091E08F9366
:1014B000CE0101969F938F930E94E0160F900F909C
:1014C0000F900F900F900F9088AD8F938FA98F93EF
:1014D0008BE091E0892F8F938BE091E08F93CE0189
:1014E0000596292F2F938F930E94E0160F900F904F
:1014F0000F900F900F900F9069AD7AAD8BAD9CADB2
:101500000E941E15DC01CB01292F2F938F938BE0B6
:1015100091E0892F8F938BE091E08F93CE010B9612
:10152000292F2F938F930E94E0160F900F900F900A
:101530000F900F900F908CA98F938BA98F938BE0B6
:1015400091E0892F8F938BE091E08F93CE014396AA
:10155000292F2F938F930E94E0160F900F900F90DA
:101560000F900F900F90CE01CF96FC01608171819A
:10157000828193810E941E15DC01CB01292F2F93BC
:101580008F938BE091E0892F8F938BE091E08F9385
:10159000CE014B96292F2F938F930E94E0160F9028
:1015A0000F900F900F900F900F9063966CAD7DADE4
:1015B0008EAD9FAD63970E941E15DC01CB01292FD4
:1015C0002F938F938BE091E0892F8F938BE091E0A5
:1015D0008F93CE018396292F2F938F930E94E0162D
:1015E0000F900F900F900F900F900F9067966CAD2B
:1015F0007DAD8EAD9FAD67970E941E15DC01CB01BE
:10160000292F2F938F938BE091E0892F8F938BE07D
:1016100091E08F93CE018B96292F2F938F930E9469
:10162000E0160F900F900F900F900F900F900E9468
:10163000C40D89E290E0FC018081882F90E08074E5
:101640009927892B09F4D7C089E290E0FC018081B9
:1016500088230CF0D0C00FEF2FE04EE560E082E26F
:101660000E947610CE01CF9620E030E040E251E4B7
:10167000FC0160817181828193810E94A71488237B
:10168000BCF46EE180E30E94F10D8EE591E00E94D2
:10169000AD126B968EAD9FAD6B97FC01108288E208
:1016A00090E028E230E0F90120812860FC012083ED
:1016B000CE01CF9620E030E040E251E4FC016081B1
:1016C0007181828193810E94FF1588233CF00FEF86
:1016D00024E14EE564E182E20E94730FCE01CF96D1
:1016E00020E030E048EC51E4FC01608171818281AE
:1016F00093810E94FF15882374F00FEF29E143E6E0
:1017000069E18DE10E94730F6B968EAD9FAD6B9773
:1017100022E0FC012083CE01CF9620E030E048E4B7
:1017200052E4FC0160817181828193810E94FF15E6
:10173000882374F00FEF2EE148E66EE188E10E9405
:10174000730F6B968EAD9FAD6B9721E0FC012083EC
:10175000CE01CF9620E030E048EC52E4FC016081FD
:101760007181828193810E94FF15882374F00FEFAD
:1017700023E24DE663E283E10E94730F6B968EAD28
:101780009FAD6B9721E0FC012083CE01CF9620E036
:1017900030E046E153E4FC016081718182819381F4
:1017A0000E94FF158823B4F00FEF28E242E768E2B9
:1017B0008EE00E94730F6B968EAD9FAD6B97FC0110
:1017C000108288E290E028E230E0F9012081277F52
:1017D000FC01208367E381E00E94F10D85E691E042
:1017E0000E94AD12CE014B960E94AD128CE691E0A4
:1017F0000E94AD12F5C06B968EAD9FAD6B97FC014C
:10180000108288E290E028E230E0F9012081277F11
:10181000FC01208361E081E00E94F10D8FE691E000
:101820000E94AD12CE0143960E94AD1285E791E071
:101830000E94AD126DE081E00E94F10D8AE791E017
:101840000E94AD12CE0101960E94AD128CE691E08D
:101850000E94AD1269E181E00E94F10D81E891E002
:101860000E94AD12CE0105960E94AD1265E281E0A4
:101870000E94F10D85E691E00E94AD12CE014B96DB
:101880000E94AD128CE691E00E94AD1261E381E00E
:101890000E94F10D87E891E00E94AD12CE010B96F7
:1018A0000E94AD128DE891E00E94AD1283E290E0BB
:1018B000FC018081882F90E080749927892B21F486
:1018C00080E991E00E94AD1283E290E0FC0180810A
:1018D000882F90E080729927892B81F469968EADCC
:1018E0009FAD6997FC018081813041F465E282E619
:1018F0000E94F10D88E991E00E94AD1283E290E030
:10190000FC018081882F90E080719927892B81F4D8
:1019100069968EAD9FAD6997FC018081813041F45D
:1019200065E28AE50E94F10D8AE991E00E94AD121C
:1019300061E084E60E94F10DCE0183960E94AD1213
:101940008CE991E00E94AD126DE08AE50E94F10DF4
:10195000CE018B960E94AD128EE991E00E94AD12ED
:1019600061E386E70E94F10D89E290E0FC0180814D
:10197000882374F489E290E0FC018081882F90E054
:1019800080749927892B21F480EA91E00E94AD129E
:1019900089E290E0FC018081882F90E08074992793
:1019A000892B51F089E290E0FC018081882324F0AA
:1019B00082EA91E00E94AD1289E290E0FC01808110
:1019C000882F90E080749927892B51F089E290E06C
:1019D000FC018081882324F484EA91E00E94AD1206
:1019E0000E948C0D8DAD9EADFC0110820000CE5B7F
:1019F000DF4F0FB6F894DEBF0FBECDBFDF91CF91A2
:101A00001F910F91FF90EF90DF90CF90BF90AF901C
:101A10000895CF93DF931F92CDB7DEB7898341E05E
:101A2000CE010196BC0180E00E94DB1200000F9005
:101A3000DF91CF910895CF93DF93CDB7DEB70E94AA
:101A4000A4138EEA0E94090D85ED0E94090D80EF16
:101A50000E94090D88EA0E94090D8FE30E94090D7A
:101A600083ED0E94090D80E00E94090D8DE80E941F
:101A7000090D84E10E94090D80E40E94090D80E2B5
:101A80000E94090D80E00E94090D81EA0E94090D63
:101A900088EC0E94090D8AED0E94090D82E10E94E6
:101AA000090D81E80E94090D8FEF0E94090D89ED53
:101AB0000E94090D81EF0E94090D8BED0E94090D16
:101AC00080E20E94090D84EA0E94090D86EA0E94C4
:101AD000090D8EE20E94090D8FEA0E94090D60E057
:101AE00080E00E94F10D86EA8093D3011092D80124
:101AF0008091D8018093D7018091D7018093D6013E
:101B00008091D6018093D2018091D2018093D1013E
:101B10000000DF91CF910895CF93DF9300D0CDB730
:101B2000DEB780E48A8381E20E94090D80E00E9492
:101B3000090D8FE70E94090D82E20E94090D80E0E5
:101B40000E94090D87E00E94090D198213C0898146
:101B5000882F90E082959295907F9827807F982794
:101B600086529E4F40E1BC0180E40E94DB128981D5
:101B70008F5F898399818A81981748F300000F90BD
:101B80000F90DF91CF910895CF93DF93CDB7DEB75C
:101B900080E00E9453100000DF91CF910895CF9311
:101BA000DF931F92CDB7DEB78983898188231CF02C
:101BB00089818093D10100000F90DF91CF9108952A
:101BC000CF93DF931F92CDB7DEB7898389818034AD
:101BD00018F489818093D20100000F90DF91CF919A
:101BE0000895CF93DF9300D0CDB7DEB789836A83A2
:101BF00089810E94CF0D8A810E94E00D00000F9024
:101C00000F90DF91CF910895CF93DF9300D000D054
:101C1000CDB7DEB78A836B834C8319826B818A814F
:101C20000E94F10D9091D2018091D101692F0E9403
:101C3000321389838C818F3FB1F48B81882F90E0A0
:101C40009C012770332781E090E0A0E0B0E004C061
:101C5000880F991FAA1FBB1F2A95D2F7982F898139
:101C6000892B898315C08B81882F90E09C01277078
:101C7000332781E090E0A0E0B0E004C0880F991F16
:101C8000AA1FBB1F2A95D2F7809599818923898342
:101C90009091D2018091D1014981692F0E940D1349
:101CA00000000F900F900F900F90DF91CF9108954B
:101CB0000F93CF93DF93CDB7DEB72C970FB6F89481
:101CC000DEBF0FBECDBF888769874A872B870C8709
:101CD000888588230CF4FCC08A8588230CF4F8C01E
:101CE0008985803408F0F4C08B85803408F0F0C01A
:101CF0009B858985292F281B822F8F5F8C839A854E
:101D00008885692F681B862F8F5F8D8389858770F3
:101D10008E8399858E81792F781B872F89878FEF06
:101D200089831F828C81282F30E08E81882F90E05C
:101D300048E050E0BA01681B790BCB01281739073E
:101D4000ACF48981882F90E02C81222F30E048E08C
:101D500050E0BA01621B730B9B0102C095958795F9
:101D60002A95E2F789838C818A8306C098E08E8168
:101D7000792F781B872F8A838981882F90E02E8185
:101D8000222F30E002C0880F991F2A95E2F789833D
:101D9000698588850E94F10D1B8224C09091D20133
:101DA0008091D101692F0E9432138F838C858F3FE0
:101DB00021F49F818981892B05C08981982F909575
:101DC0008F8189238F832091D2018091D10191E06D
:101DD000980F9093D1014F81622F0E940D138B8138
:101DE0008F5F8B839B818D819817C0F21FC08A8182
:101DF000885F8A838985885F8987698588850E944D
:101E0000F10D1B820FC02091D2018091D10191E090
:101E1000980F9093D1014C85622F0E940D138B81F6
:101E20008F5F8B839B818D81981768F38A81882FC0
:101E300090E09C01285F3F4F8C81882F90E08217B3
:101E40009307ACF69A818C81981708F041C08C8179
:101E5000282F30E08A81882F90E0281B390B8FEFE4
:101E600090E002C0880F991F2A95E2F78095898338
:101E70008985885F682F88850E94F10D1B8224C0A8
:101E80009091D2018091D101692F0E9432138F83EA
:101E90008C858F3F21F49F818981892B05C08981A1
:101EA000982F90958F8189238F832091D2018091E3
:101EB000D10191E0980F9093D1014F81622F0E9440
:101EC0000D138B818F5F8B839B818D819817C0F25F
:101ED00000002C960FB6F894DEBF0FBECDBFDF9189
:101EE000CF910F9108950F93CF93DF93CDB7DEB7C6
:101EF00060970FB6F894DEBF0FBECDBF8C876D879D
:101F00004E872F87088B8C8588230CF4C1C08E8563
:101F100088230CF4BDC08D85803408F0B9C08F854E
:101F2000803408F0B5C09C858E85981739F42889CF
:101F30004C856F858D850E947D13AAC09D858F85F8
:101F4000981739F428894D856E858C850E94521327
:101F50009FC09D858F85891748F48D85282F30E097
:101F60008F85882F90E0281B390B08C08F85282F7C
:101F700030E08D85882F90E0281B390B9C858E855D
:101F8000891758F48C85482F50E08E85882F90E073
:101F9000BA01681B790BCB010AC08E85482F50E02F
:101FA0008C85882F90E0BA01681B790BCB0141E04A
:101FB000821793070CF040E04C838C81882361F0FA
:101FC0008C858D838D858C878D818D878E858E8385
:101FD0008F858E878E818F879C858E85891760F48B
:101FE0008C858F838E858C878F818E878D85888762
:101FF0008F858D8788858F879E858C85792F781B27
:10200000872F89879F858D85891730F49F858D85DA
:10201000292F281B822F05C09D858F85692F681B5E
:10202000862F8A87898586958B838D858A839D8572
:102030008F85981710F481E001C08FEF8B878C8516
:10204000898322C08C81882331F0488969818A8103
:102050000E94040E05C048896A8189810E94040E8D
:102060009B818A85792F781B872F8B838B8188238F
:1020700044F48B859A81890F8A839B818985890F96
:102080008B8389818F5F898399818E858917D0F6AB
:10209000000060960FB6F894DEBF0FBECDBFDF9193
:1020A000CF910F910895CF93DF9300D01F92CDB7BA
:1020B000DEB78B831A8210C0198208C04B816A81F7
:1020C00089810E940D1389818F5F8983898188238B
:1020D000ACF78A81885F8A838A81803468F3000044
:1020E0000F900F900F90DF91CF9108950F93CF93A2
:1020F000DF9300D000D01F92CDB7DEB789836A830B
:102100004B832C830D830D812C814B816A818981C6
:102110000E94580E00000F900F900F900F900F909C
:10212000DF91CF910F910895CF93DF93CDB7DEB7B5
:102130008091D301873A21F486EA8093D30103C0CA
:1021400087EA8093D3018091D3010E94090D00009A
:10215000DF91CF910895CF93DF9300D000D01F92ED
:10216000CDB7DEB79A8389836B834C832D838B81B4
:10217000882344F18C81803428F58D81882319F0DF
:102180008D818130F9F489819A819093D501809372
:10219000D4018B818093D6018C818093D7018C816F
:1021A000882F90E0019799230CF4079695958795D1
:1021B00095958795959587958F5F8093D8018D81AB
:1021C0008093D90100000F900F900F900F900F9007
:1021D000DF91CF910895CF93DF93CDB7DEB76C97A2
:1021E0000FB6F894DEBF0FBECDBF8C8F19868985E0
:1021F000888788858A878A858B878B858F838F815F
:102200008E838E818C878C858D838D818D878D8546
:10221000882F90E09C838B838B819C819A83898318
:1022200089819A819F878E878091D1018D87809146
:10223000D2018C878C858D838C8D80528C8F8C8D78
:10224000482F50E08091D601682F70E08091D8012E
:10225000282F30E0629FC001639F900D729F900D08
:1022600011249C012F5F3F4F429FC001439F900D5F
:10227000529F900D11249F878E872091D401309119
:10228000D5018E859F85AC014F5F5F4F5F874E877D
:10229000820F931F998B888B88899989FC0184917F
:1022A0008A8B8A898B878091D20187708A871F8267
:1022B000A4C06D818D850E94F10D8F81282F30E0A3
:1022C0008E859F85820F931F9A83898389819A8146
:1022D00001979C838B831E8279C02091D401309119
:1022E000D50189819A81820F931F9C8B8B8B8B895F
:1022F0009C89FC0184918D8B8D8988878885882FA6
:1023000090E02A85222F30E002C0880F991F2A957D
:10231000E2F788878F81882389F12091D401309159
:10232000D5018B819C81820F931F9F8B8E8B8E8911
:102330009F89FC018491888F888D89878985882F62
:1023400090E02A85222F30E048E050E0BA01621B7D
:10235000730B9B0102C0959587952A95E2F78987B3
:1023600098858985892B88878091D801882F90E06E
:102370002B813C81820F931F9C838B838091D90199
:10238000813059F49091D2018091D101692F0E943E
:102390003213982F8885892B88872091D2018091CC
:1023A000D10191E0980F9093D1014885622F0E944E
:1023B0000D138091D801882F90E029813A81820FF6
:1023C000931F9A8389838E818F5F8E839E818B85F5
:1023D000981708F482CF8091D901882341F4909115
:1023E000D2018091D10140E0692F0E940D138D81AF
:1023F000885F8D838F818F5F8F839091D8018F81CC
:10240000891708F456CF8C85869586958695282F52
:1024100030E08C85482F50E08091D701882F90E0E4
:10242000840F951F019799230CF40796959587952E
:1024300095958795959587952817390709F47CC058
:102440008D81803408F078C06D818D850E94F10DFA
:102450008F81282F30E08E859F85820F931F0197F3
:102460009C838B831E8257C09091D2018091D101B1
:10247000692F0E94321388872091D4013091D501B1
:102480008B819C81820F931F9A8F898F898D9A8D62
:10249000FC0184918B8F8B8D89878985882F90E0B3
:1024A0002A85222F30E048E050E0BA01621B730B0E
:1024B0009B0102C0959587952A95E2F789879885B3
:1024C0008985892B88878091D901813059F4909131
:1024D000D2018091D101692F0E943213982F8885F3
:1024E000892B88872091D2018091D10191E0980FAA
:1024F0009093D1014885622F0E940D138091D801DD
:10250000882F90E02B813C81820F931F9C838B83CB
:102510008E818F5F8E839E818B85981708F4A4CF60
:102520008091D901882341F49091D2018091D10109
:1025300040E0692F0E940D139D858B85890F8F5F69
:102540006C850E94F10D00006C960FB6F894DEBF0A
:102550000FBECDBFDF91CF910895CF93DF9300D011
:10256000CDB7DEB79A83898318C08091D101282F17
:1025700030E08091D601882F90E0820F931F803841
:10258000910594F489819A819C012F5F3F4F3A8392
:102590002983FC0180810E94EB1089819A81FC01D2
:1025A0008081882311F701C0000000000F900F9078
:1025B000DF91CF910895CF93DF9300D000D01F9289
:1025C000CDB7DEB78A837C836B834D830E94EA1389
:1025D00088E70E941D148A810E941D1419820EC072
:1025E0008981882F90E02B813C81820F931FFC0111
:1025F00080810E941D1489818F5F898399818D81DB
:10260000981770F30E94FF1300000F900F900F9027
:102610000F900F90DF91CF910895CF93DF9300D06B
:102620001F92CDB7DEB789836A834B838981282FB8
:1026300030E08A81869586958695882F90E09695DC
:10264000982F882797958795820F931F86529E4FC4
:102650002B81FC01208300000F900F900F90DF91E1
:10266000CF910895CF93DF9300D0CDB7DEB78983A4
:102670006A838981282F30E08A81869586958695A0
:10268000882F90E09695982F882797958795820FA9
:10269000931F86529E4FFC0180810F900F90DF9117
:1026A000CF910895CF93DF9300D000D01F92CDB784
:1026B000DEB78A836B834C832D839A818B81891744
:1026C00078F48A8189838B818A8389818B8308C08E
:1026D0004D816C818A810E94040E8A818F5F8A837A
:1026E0009A818B818917A0F700000F900F900F90AF
:1026F0000F900F90DF91CF9108950F93CF93DF93B9
:1027000000D000D01F92CDB7DEB78A836B834C8395
:102710002D839A818B81891730F48A8189838B81FB
:102720008A8389818B830D812B814C816A818C8185
:102730000E94580E00000F900F900F900F900F9076
:10274000DF91CF910F910895CF93DF93CDB7DEB78F
:1027500087E290E027E230E0F90120812061FC016E
:10276000208387E290E027E230E0F90120812062B7
:10277000FC01208388E290E028E230E0F90120812A
:102780002061FC01208388E290E028E230E0F9013A
:1027900020812062FC01208389EB90E0FC01108203
:1027A00088EB90E028E4FC0120838CEB90E024E0AF
:1027B000FC0120830000DF91CF910895CF93DF9338
:1027C000CDB7DEB789EB90E0FC018081887FDF9197
:1027D000CF910895CF93DF93CDB7DEB78CEB90E028
:1027E00024EAFC01208300008CEB90E0FC01808156
:1027F0008823D4F70E94DE13DF91CF910895CF9301
:10280000DF93CDB7DEB78CEB90E025EDFC012083A4
:1028100000008CEB90E0FC018081882F90E0A0E02C
:10282000B0E080719927AA27BB27892B8A2B8B2B95
:1028300081F70000DF91CF910895CF93DF931F922E
:10284000CDB7DEB789838BEB90E02981FC01208333
:102850008CEB90E024E8FC01208300008CEB90E0FE
:10286000FC0180818823D4F70E94DE130F90DF9152
:10287000CF9108955058BB27AA270E9452140C9458
:10288000C5150E94B71538F00E94BE1520F039F426
:102890009F3F19F426F40C94B4150EF4E095E7FB71
:1028A0000C94AE15E92F0E94D61558F3BA1762079B
:1028B00073078407950720F079F4A6F50C94F815B2
:1028C0000EF4E0950B2EBA2FA02D0B01B90190014B
:1028D0000C01CA01A0011124FF27591B99F0593F8F
:1028E00050F4503E68F11A16F040A22F232F342FD7
:1028F0004427585FF3CF469537952795A795F04025
:102900005395C9F77EF41F16BA0B620B730B840B39
:10291000BAF09150A1F0FF0FBB1F661F771F881FF1
:10292000C2F70EC0BA0F621F731F841F48F4879549
:1029300077956795B795F7959E3F08F0B0CF93953B
:10294000880F08F09927EE0F9795879508950E94B4
:102950008A1508F481E008950E94C0140C94C515EE
:102960000E94BE1558F00E94B71540F029F45F3F51
:1029700029F00C94AE1551110C94F9150C94B41562
:102980000E94D61568F39923B1F3552391F3951B53
:10299000550BBB27AA2762177307840738F09F5F80
:1029A0005F4F220F331F441FAA1FA9F335D00E2EED
:1029B0003AF0E0E832D091505040E695001CCAF75A
:1029C0002BD0FE2F29D0660F771F881FBB1F26171D
:1029D00037074807AB07B0E809F0BB0B802DBF01F4
:1029E000FF2793585F4F3AF09E3F510578F00C94C3
:1029F000AE150C94F9155F3FE4F3983ED4F3869539
:102A000077956795B795F7959F5FC9F7880F911DE3
:102A10009695879597F90895E1E0660F771F881FCF
:102A2000BB1F621773078407BA0720F0621B730B82
:102A3000840BBA0BEE1F88F7E09508950E94DE150F
:102A400088F09F5798F0B92F9927B751B0F0E1F06F
:102A5000660F771F881F991F1AF0BA95C9F714C01F
:102A6000B13091F00E94F815B1E008950C94F8157A
:102A7000672F782F8827B85F39F0B93FCCF3869558
:102A800077956795B395D9F73EF4909580957095B5
:102A900061957F4F8F4F9F4F0895E89409C097FB32
:102AA0003EF490958095709561957F4F8F4F9F4F25
:102AB0009923A9F0F92F96E9BB279395F695879569
:102AC00077956795B795F111F8CFFAF4BB0F11F42C
:102AD00060FF1BC06F5F7F4F8F4F9F4F16C08823D3
:102AE00011F096E911C0772321F09EE8872F762F09
:102AF00005C0662371F096E8862F70E060E02AF04A
:102B00009A95660F771F881FDAF7880F9695879535
:102B100097F90895990F0008550FAA0BE0E8FEEF0A
:102B200016161706E807F907C0F012161306E40791
:102B3000F50798F0621B730B840B950B39F40A268A
:102B400061F0232B242B252B21F408950A2609F468
:102B5000A140A6958FEF811D811D089597F99F676C
:102B600080E870E060E008959FEF80EC0895002415
:102B70000A941616170618060906089500240A94E2
:102B800012161306140605060895092E0394000C68
:102B900011F4882352F0BB0F40F4BF2B11F460FFF7
:102BA00004C06F5F7F4F8F4F9F4F089557FD905820
:102BB000440F551F59F05F3F71F04795880F97FB01
:102BC000991F61F09F3F79F08795089512161306BB
:102BD0001406551FF2CF4695F1DF08C016161706EA
:102BE0001806991FF1CF869571056105089408951F
:102BF000E894BB2766277727CB0197F908950E94B1
:102C00008A1508F48FEF08950E9417160C94C515C5
:102C10000E94B71538F00E94BE1520F0952311F0E0
:102C20000C94AE150C94B41511240C94F9150E9453
:102C3000D61570F3959FC1F3950F50E0551F629F15
:102C4000F001729FBB27F00DB11D639FAA27F00D05
:102C5000B11DAA1F649F6627B00DA11D661F829F2C
:102C60002227B00DA11D621F739FB00DA11D621F11
:102C7000839FA00D611D221F749F3327A00D611D2E
:102C8000231F849F600D211D822F762F6A2F112410
:102C90009F5750409AF0F1F088234AF0EE0FFF1F43
:102CA000BB1F661F771F881F91505040A9F79E3F9A
:102CB000510580F00C94AE150C94F9155F3FE4F3C8
:102CC000983ED4F3869577956795B795F795E795F0
:102CD0009F5FC1F7FE2B880F911D9695879597F9F9
:102CE0000895AA1BBB1B51E107C0AA1FBB1FA61753
:102CF000B70710F0A61BB70B881F991F5A95A9F7A5
:102D000080959095BC01CD010895A1E21A2EAA1BD1
:102D1000BB1BFD010DC0AA1FBB1FEE1FFF1FA2178B
:102D2000B307E407F50720F0A21BB30BE40BF50B88
:102D3000661F771F881F991F1A9469F76095709511
:102D4000809590959B01AC01BD01CF010895052EA2
:102D500097FB1EF400940E94BE1657FD07D00E94F8
:102D6000851607FC03D04EF40C94BE165095409582
:102D7000309521953F4F4F4F5F4F08959095809527
:102D8000709561957F4F8F4F9F4F0895A29FB0011F
:102D9000B39FC001A39F700D811D1124911DB29F8F
:102DA000700D811D1124911D08950E94C616A59FC6
:102DB000900DB49F900DA49F800D911D1124089536
:102DC000AEE0B0E0E6EEF6E10C94CA190D891E897A
:102DD00086E08C831A8309838FEF9FE79E838D8320
:102DE000AE01475E5F4F6F89788DCE0101960E94DC
:102DF0000217EF81F885E00FF11F10822E96E4E0B4
:102E00000C94E619ABE0B0E0E8E0F7E10C94BC19F3
:102E10006C017B018A01FC0117821682838181FF8C
:102E2000CCC1CE0101963C01F6019381F70193FDDF
:102E3000859193FF81917F01882309F4BAC185327E
:102E400039F493FD859193FF81917F01853229F4B7
:102E5000B60190E00E94F918E7CF912C212C312C7B
:102E6000FFE1F315D8F08B3279F038F4803279F045
:102E70008332A1F4232D20611DC08D3261F0803397
:102E800069F4232D216016C0832D8260382EE32D36
:102E9000E4603E2E2AC0F32DF8601DC037FC2DC023
:102EA00020ED280F2A3040F08E32B9F436FC81C173
:102EB000232D2064322E19C036FE06C08AE0989E6B
:102EC000200D1124922E11C0EAE02E9E200D112417
:102ED000222EF32DF0623F2E08C08C3621F4832D74
:102EE0008068382E02C0883641F4F70193FD859141
:102EF00093FF81917F018111B3CF982F9F7D9554CE
:102F0000933028F40C5F1F4F9FE399830DC08336E5
:102F100031F0833771F0833509F059C021C0F801D1
:102F2000808189830E5F1F4F88248394912C5301E5
:102F300013C02801F2E04F0E511CF801A080B180AF
:102F400036FE03C0692D70E002C06FEF7FEFC50150
:102F50000E94EE184C018201F32DFF773F2E16C020
:102F6000280122E0420E511CF801A080B18036FEFB
:102F700003C0692D70E002C06FEF7FEFC5010E94B2
:102F8000E3184C01F32DF0683F2E820133FC1BC087
:102F9000822D90E088169906B0F4B60180E290E0A8
:102FA0000E94F9182A94F4CFF50137FC859137FE79
:102FB00081915F01B60190E00E94F91821102A94D6
:102FC00021E0821A91088114910471F7E8C08436D7
:102FD00011F0893641F5F80137FE07C06081718133
:102FE000828193810C5F1F4F08C060817181072E21
:102FF000000C880B990B0E5F1F4FF32DFF763F2EB1
:1030000097FF09C090958095709561957F4F8F4F80
:103010009F4FF0683F2E2AE030E0A3010E9435194F
:10302000882E861845C0853731F4232D2F7EB22E89
:103030002AE030E025C0932D997FB92E8F36C1F05C
:1030400018F4883579F0B5C0803719F0883721F049
:10305000B0C0E92FE061BE2EB4FE0DC0FB2DF460C0
:10306000BF2E09C034FE0AC0292F2660B22E06C02A
:1030700028E030E005C020E130E002C020E132E08D
:10308000F801B7FE07C060817181828193810C5F76
:103090001F4F06C06081718180E090E00E5F1F4F7E
:1030A000A3010E943519882E8618FB2DFF773F2E2D
:1030B00036FE0DC0232D2E7FA22E891458F434FE27
:1030C0000BC032FC09C0832D8E7EA82E05C0B82C03
:1030D000A32C03C0B82C01C0B92CA4FE0FC0FE0164
:1030E000E80DF11D8081803321F49A2D997EA92E5F
:1030F00009C0A2FE06C0B394B39404C08A2D86789A
:1031000009F0B394A3FC11C0A0FE06C0B21488F469
:10311000280C922C9B180EC0B21460F4B60180E209
:1031200090E00E94F918B394F7CFB21418F42B185A
:1031300002C0982C212CA4FE10C0B60180E390E0C0
:103140000E94F918A2FE17C0A1FC03C088E790E016
:1031500002C088E590E0B6010CC08A2D867859F04F
:10316000A1FE02C08BE201C080E2A7FC8DE2B601A5
:1031700090E00E94F918891438F4B60180E390E0D9
:103180000E94F9189A94F7CF8A94F301E80DF11D83
:103190008081B60190E00E94F9188110F5CF2220BD
:1031A00009F442CEB60180E290E00E94F9182A9418
:1031B000F6CFF6018681978102C08FEF9FEF2B96A5
:1031C000E2E10C94D819FC010590615070400110A7
:1031D000D8F7809590958E0F9F1F0895FC01615040
:1031E000704001900110D8F7809590958E0F9F1F29
:1031F00008950F931F93CF93DF93FB01238121FD4C
:1032000003C08FEF9FEF2CC022FF16C0468157816D
:10321000248135814217530744F4A081B1819D0177
:103220002F5F3F4F318320838C93268137812F5F1F
:103230003F4F3783268314C08B01EC01FB010084D0
:10324000F185E02D0995892BE1F6D80116968D912F
:103250009C911797019617969C938E931697CE0183
:10326000DF91CF911F910F910895FA01AA2728307D
:1032700051F1203181F1E8946F936E7F6E5F7F4F43
:103280008F4F9F4FAF4FB1E03ED0B4E03CD0670FBF
:10329000781F891F9A1FA11D680F791F8A1F911D12
:1032A000A11D6A0F711D811D911DA11D20D009F462
:1032B00068943F912AE0269F11243019305D3193A4
:1032C000DEF6CF010895462F4770405D4193B3E08D
:1032D0000FD0C9F7F6CF462F4F70405D4A3318F034
:1032E000495D31FD4052419302D0A9F7EACFB4E0E5
:1032F000A6959795879577956795BA95C9F700979D
:103300006105710508959B01AC010A2E069457953D
:10331000479537952795BA95C9F7620F731F841F94
:10332000951FA01D0895A8E1B0E042E050E00C9484
:10333000A0190E94AE19272F0C94AF19DC01CB0104
:10334000FC01F999FECF06C0F2BDE1BDF89A3196B5
:1033500000B40D9241505040B8F70895262FF999C6
:10336000FECF1FBA92BD81BD20BD0FB6F894FA9A68
:10337000F99A0FBE019608952F923F924F925F9255
:103380006F927F928F929F92AF92BF92CF92DF9275
:10339000EF92FF920F931F93CF93DF93CDB7DEB7DA
:1033A000CA1BDB0B0FB6F894DEBF0FBECDBF09946E
:1033B0002A88398848885F846E847D848C849B84C5
:1033C000AA84B984C884DF80EE80FD800C811B81D3
:1033D000AA81B981CE0FD11D0FB6F894DEBF0FBE02
:0A33E000CDBFED010895F894FFCF72
:1033EA0002E7030F274100000010412575005465CC
:1033FA006D7065726174757261204D6178696D6175
:10340A0020526567697374726164613A004C696D30
:10341A0070616E646F2074656D7065726174757227
:10342A0061206D6178696D612E2E2E004665697482
:10343A006F21004F646F20617475616C3A005041CE
:10344A005241522100446973743A2000636D005658
:10345A00656C3A20004B6D2F68004469616D3A2013
:10346A000052504D3A20004F646F3A20004B6D00D5
:10347A0020204661726F6C003E003C00430025002C
:06348A0044005000520056
:00000001FF
